:100000000C945D000C9485000C9485000C94850084
:100010000C9485000C9485000C9485000C9485004C
:100020000C9485000C9485000C9485000C9485003C
:100030000C9485000C9485000C9485000C9485002C
:100040000C94F3000C9485000C94A0030C94D20340
:100050000C9485000C9485000C9485000C9485000C
:100060000C9485000C94850000000008000201003B
:100070000003040700000000000000000102040863
:100080001020408001020408102001020408102002
:10009000040404040404040402020202020203032E
:1000A0000303030300000000250028002B000000CC
:1000B0000000240027002A00020411241FBECFEFF5
:1000C000D8E0DEBFCDBF11E0A0E0B1E0E8E0FBE0AA
:1000D00002C005900D92A432B107D9F721E0A4E245
:1000E000B1E001C01D92AA3CB207E1F710E0CAEBF3
:1000F000D0E004C02297FE010E947E05C83BD107D4
:10010000C9F70E944A050C9482050C94000026E071
:1001100040E855E260E070E08DE291E00E943E032D
:1001200061E0809101010E94EC0161E08091020197
:100130000E94EC0161E0809100010E94EC0160E00E
:10014000809101010E94250260E0809102010E94DD
:10015000250260E0809100010C942502CF93DF938B
:100160008DE291E00E945B02892BD1F18DE291E05A
:100170000E947402EC018D349105C1F044F4813485
:100180009105D1F082349105E1F461E00CC0823632
:10019000910541F08D36910559F08136910589F42C
:1001A00060E00BC060E08091010109C061E001C026
:1001B00060E08091020103C061E0809100010E9433
:1001C00025024AE050E0BE018DE291E00E94310537
:1001D00068EC70E080E090E0DF91CF910C946001DA
:1001E000DF91CF9108951F920F920FB60F921124B5
:1001F0002F933F938F939F93AF93BF93809125014C
:1002000090912601A0912701B091280130912401FD
:1002100023E0230F2D3720F40196A11DB11D05C049
:1002200026E8230F0296A11DB11D2093240180937F
:10023000250190932601A0932701B0932801809176
:10024000290190912A01A0912B01B0912C010196D6
:10025000A11DB11D8093290190932A01A0932B0128
:10026000B0932C01BF91AF919F918F913F912F91AE
:100270000F900FBE0F901F9018953FB7F894809184
:10028000290190912A01A0912B01B0912C0126B552
:10029000A89B05C02F3F19F00196A11DB11D3FBFBE
:1002A0006627782F892F9A2F620F711D811D911D4E
:1002B00042E0660F771F881F991F4A95D1F708956E
:1002C000CF92DF92EF92FF92CF93DF936B017C018D
:1002D0000E943D01EB01C114D104E104F10489F055
:1002E0000E9459050E943D016C1B7D0B683E7340C6
:1002F00090F381E0C81AD108E108F108C851DC4F39
:10030000EACFDF91CF91FF90EF90DF90CF900895EB
:10031000789484B5826084BD84B5816084BD85B5E0
:10032000826085BD85B5816085BDEEE6F0E08081A7
:1003300081608083E1E8F0E01082808182608083C8
:10034000808181608083E0E8F0E08081816080834B
:10035000E1EBF0E0808184608083E0EBF0E080817D
:1003600081608083EAE7F0E080818460808380811F
:1003700082608083808181608083808180688083C7
:100380001092C1000895833081F028F4813099F0F3
:100390008230A1F008958730A9F08830B9F0843018
:1003A000D1F4809180008F7D03C0809180008F7791
:1003B00080938000089584B58F7702C084B58F7DC7
:1003C00084BD08958091B0008F7703C08091B00004
:1003D0008F7D8093B0000895CF93DF9390E0FC0170
:1003E000E458FF4F2491FC01E057FF4F849188238C
:1003F00049F190E0880F991FFC01E255FF4FA5914C
:10040000B4918C559F4FFC01C591D4919FB7611158
:1004100008C0F8948C91209582238C938881822344
:100420000AC0623051F4F8948C91322F30958323B6
:100430008C938881822B888304C0F8948C91822BC2
:100440008C939FBFDF91CF9108950F931F93CF930C
:10045000DF931F92CDB7DEB7282F30E0F901E859BE
:10046000FF4F8491F901E458FF4F1491F901E057CF
:10047000FF4F04910023C9F0882321F069830E9473
:10048000C3016981E02FF0E0EE0FFF1FEC55FF4F35
:10049000A591B4919FB7F8948C91611103C0109508
:1004A000812301C0812B8C939FBF0F90DF91CF914F
:1004B0001F910F910895FC01818D228D90E0805C49
:1004C0009F4F821B91098F7399270895FC01918D8D
:1004D000828D981731F0828DE80FF11D858D90E0A7
:1004E00008958FEF9FEF0895FC01918D828D9817ED
:1004F00061F0828DDF01A80FB11D5D968C91928D08
:100500009F5F9F73928F90E008958FEF9FEF089504
:1005100088EF93E0892B49F080E090E0892B29F067
:100520000E94F80381110C9400000895FC01848D51
:10053000DF01A80FB11DA35ABF4F2C91848D90E00D
:1005400001968F739927848FA689B7892C93A089E8
:10055000B1898C9180648C93938D848D981306C09F
:100560000288F389E02D80818F7D80830895CF9369
:10057000DF93EC01888D8823C9F0EA89FB898081AB
:1005800085FD05C0A889B9898C9186FD0FC00FB67D
:1005900007FCF5CF808185FFF2CFA889B9898C91BE
:1005A00085FFEDCFCE010E949602E7CFDF91CF917C
:1005B0000895CF92DF92FF920F931F93CF93DF9313
:1005C0001F92CDB7DEB76C0181E0D60158968C93AF
:1005D00058975B969C915B975C968C915C9798136F
:1005E00007C05096ED91FC915197808185FD2EC0FA
:1005F000F601038D10E00F5F1F4F0F731127F02ED0
:10060000F601848DF81211C00FB607FCF9CFD601A0
:100610005096ED91FC915197808185FFF1CFC601F5
:1006200069830E9496026981EBCF838DE80FF11DEB
:10063000E35AFF4F6083D6015B960C935B9752960B
:10064000ED91FC915397808180620CC0D601569643
:10065000ED91FC91579760835096ED91FC915197E5
:1006600080818064808381E090E00F90DF91CF9162
:100670001F910F91FF90DF90CF900895BF92CF927E
:10068000DF92EF92FF92CF93DF93EC016A017B013F
:10069000B22EE889F98982E08083411581EE5807FE
:1006A00061057105A1F060E079E08DE390E0A701BC
:1006B00096010E945A052150310941095109569568
:1006C000479537952795211580E1380798F0E889F7
:1006D000F989108260E874E88EE190E0A701960144
:1006E0000E945A05215031094109510956954795F3
:1006F00037952795EC85FD853083EE85FF85208332
:10070000188EEC89FD89B082EA89FB89808180613D
:100710008083EA89FB89808188608083EA89FB89FC
:10072000808180688083EA89FB8980818F7D8083D6
:10073000DF91CF91FF90EF90DF90CF90BF90089521
:100740001F920F920FB60F9211242F938F939F93A6
:10075000EF93FF93E0913D01F0913E018081E091A4
:100760004301F091440182FD12C0908180914601C5
:100770008F5F8F7320914701821751F0E0914601FE
:10078000F0E0E35DFE4F958F8093460101C08081CC
:10079000FF91EF919F918F912F910F900FBE0F902E
:1007A0001F9018951F920F920FB60F9211242F933E
:1007B0003F934F935F936F937F938F939F93AF93E9
:1007C000BF93EF93FF938DE291E00E949602FF9119
:1007D000EF91BF91AF919F918F917F916F915F91B9
:1007E0004F913F912F910F900FBE0F901F90189532
:1007F0008DE291E00E945B0221E0892B09F420E068
:10080000822F08951092300110922F0188EE93E00C
:10081000A0E0B0E08093310190933201A0933301C6
:10082000B093340187E091E090932E0180932D01E5
:1008300085EC90E090933A018093390184EC90E04C
:1008400090933C0180933B0180EC90E090933E01BB
:1008500080933D0181EC90E09093400180933F01B3
:1008600082EC90E0909342018093410186EC90E00D
:1008700090934401809343011092460110924701E6
:1008800010924801109249010895CF92DF92EF92A1
:10089000FF920F931F93CF93DF937C016A01EB01CB
:1008A00000E010E00C151D0571F06991D701ED9184
:1008B000FC910190F081E02DC7010995892B19F079
:1008C0000F5F1F4FEFCFC801DF91CF911F910F91A5
:1008D000FF90EF90DF90CF9008956115710581F042
:1008E000DB010D900020E9F7AD0141505109461B95
:1008F000570BDC01ED91FC910280F381E02D09940E
:1009000080E090E00895DC01ED91FC910190F08190
:10091000E02D099463E171E00C946D048F929F9235
:10092000AF92BF92CF92DF92EF92FF920F931F93FD
:10093000CF93DF93CDB7DEB7A1970FB6F894DEBFA4
:100940000FBECDBF7C01C42EE52FCB01D22E19A244
:1009500021E02D1510F02AE0D22E8E010F5D1F4FE1
:100960008D2C912CA12CB12C6C2D7E2FA5019401E6
:100970000E945A058C2DD29E801911240150110914
:100980008A3014F4805D01C0895CF80180832115F0
:1009900031054105510521F0C22EE32FCA01E4CFF4
:1009A000B801C7010E946D04A1960FB6F894DEBF8E
:1009B0000FBECDBFDF91CF911F910F91FF90EF90B0
:1009C000DF90CF90BF90AF909F908F900895CF927F
:1009D000DF92EF92FF920F931F93CF93DF93EC017F
:1009E0006A017B012115310579F4E881F9810190D3
:1009F000F081E02D642FDF91CF911F910F91FF9037
:100A0000EF90DF90CF9009942A303105E9F477FF19
:100A10001AC06DE20E9483048C0144275527BA0155
:100A20004C195D096E097F092AE0CE010E948E04EF
:100A3000800F911FDF91CF911F910F91FF90EF9049
:100A4000DF90CF9008952AE0B701A601CE01DF9193
:100A5000CF911F910F91FF90EF90DF90CF900C946A
:100A60008E040F931F93CF93DF93EC019A01AB0198
:100A7000662757FD6095762F0E94E7048C01CE0112
:100A80000E948A04800F911FDF91CF911F910F91D7
:100A9000089508950E9488010E9449050E948700D8
:100AA000C8E8D2E00E94AE002097E1F30E948802DD
:100AB000F9CF0895A1E21A2EAA1BBB1BFD010DC0A0
:100AC000AA1FBB1FEE1FFF1FA217B307E407F507FE
:100AD00020F0A21BB30BE40BF50B661F771F881FDA
:100AE000991F1A9469F760957095809590959B0170
:100AF000AC01BD01CF010895EE0FFF1F0590F491E9
:080B0000E02D0994F894FFCFE9
:100B0800100F0800000000D90245045B0274026659
:100B180002B7020D0A006E616E00696E66006F769C
:040B280066002E0035
:107E0000112484B714BE81FFF0D085E080938100F7
:107E100082E08093C00088E18093C10086E0809377
:107E2000C20080E18093C4008EE0C9D0259A86E02C
:107E300020E33CEF91E0309385002093840096BBD3
:107E4000B09BFECF1D9AA8958150A9F7CC24DD24C4
:107E500088248394B5E0AB2EA1E19A2EF3E0BF2EE7
:107E6000A2D0813461F49FD0082FAFD0023811F036
:107E7000013811F484E001C083E08DD089C08234E0
:107E800011F484E103C0853419F485E0A6D080C0E4
:107E9000853579F488D0E82EFF2485D0082F10E0AE
:107EA000102F00270E291F29000F111F8ED06801E7
:107EB0006FC0863521F484E090D080E0DECF843638
:107EC00009F040C070D06FD0082F6DD080E0C81688
:107ED00080E7D80618F4F601B7BEE895C0E0D1E017
:107EE00062D089930C17E1F7F0E0CF16F0E7DF06D8
:107EF00018F0F601B7BEE89568D007B600FCFDCFD4
:107F0000A601A0E0B1E02C9130E011968C91119780
:107F100090E0982F8827822B932B1296FA010C0160
:107F200087BEE89511244E5F5F4FF1E0A038BF0790
:107F300051F7F601A7BEE89507B600FCFDCF97BE46
:107F4000E89526C08437B1F42ED02DD0F82E2BD052
:107F50003CD0F601EF2C8F010F5F1F4F84911BD097
:107F6000EA94F801C1F70894C11CD11CFA94CF0C13
:107F7000D11C0EC0853739F428D08EE10CD085E9AC
:107F80000AD08FE07ACF813511F488E018D01DD067
:107F900080E101D065CF982F8091C00085FFFCCF94
:107FA0009093C60008958091C00087FFFCCF809118
:107FB000C00084FD01C0A8958091C6000895E0E648
:107FC000F0E098E1908380830895EDDF803219F02E
:107FD00088E0F5DFFFCF84E1DECF1F93182FE3DFCA
:107FE0001150E9F7F2DF1F91089580E0E8DFEE27F6
:047FF000FF270994CA
:027FFE00040479
:0400000300007E007B
:00000001FF
