:100000000C945D000C9412050C94EB040C94850088
:100010000C9485000C9485000C9485000C9485004C
:100020000C9485000C9485000C9485000C9485003C
:100030000C9485000C9485000C9485000C9485002C
:100040000C94A1040C9485000C946F040C94490446
:100050000C9485000C9485000C9485000C9485000C
:100060000C9485000C9485000000000024002700FB
:100070002A0000000000250028002B0004040404CE
:100080000404040402020202020203030303030342
:10009000010204081020408001020408102001021F
:1000A00004081020000000080002010000030407FB
:1000B0000000000000000000390511241FBECFEF32
:1000C000D8E0DEBFCDBF11E0A0E0B1E0E4E7FFE0A3
:1000D00002C005900D92A636B107D9F722E0A6E638
:1000E000B1E001C01D92A937B207E1F710E0CDE5FC
:1000F000D0E004C02197FE010E94AD07CC35D107A6
:10010000C9F70E9496050C94B8070C940000ECE720
:10011000F1E0A089B18982E08C93A485B5851C9219
:10012000A685B7858FEC8C93108EA489B58986E05F
:100130008C93A289B3898C9180618C93A289B389B5
:100140008C9188608C93A289B3898C9180688C9300
:100150000288F389E02D80818F7D80830895CF927E
:10016000DF92EF92FF920F931F93CF93DF936C0177
:100170007A018B01C0E0D0E0CE15DF0589F0D8010F
:100180006D918D01D601ED91FC910190F081E02DF2
:10019000C6010995892B11F47E0102C02196ECCF8E
:1001A000C701DF91CF911F910F91FF90EF90DF90EA
:1001B000CF900895FC01538D448D252F30E0842F7E
:1001C00090E0821B930B541710F0CF96089501977F
:1001D0000895FC01918D828D981761F0828DDF0169
:1001E000A80FB11D5D968C91928D9F5F9F73928F2A
:1001F00090E008958FEF9FEF0895FC01918D828D1F
:10020000981731F0828DE80FF11D858D90E00895EB
:100210008FEF9FEF0895FC01918D228D892F90E043
:10022000805C9F4F821B91098F73992708958CE7FB
:1002300091E00E940B0121E0892B09F420E0822F3C
:100240000895FC01848DDF01A80FB11DA35ABF4F93
:100250002C91848D90E001968F739927848FA689C5
:10026000B7892C93A089B1898C9180648C93938DEC
:10027000848D981306C00288F389E02D80818F7DDC
:1002800080830895EF92FF920F931F93CF93DF9394
:10029000EC0181E0888F9B8D8C8D981305C0E889D7
:1002A000F989808185FD24C0F62E0B8D10E00F5F4B
:1002B0001F4F0F731127E02E8C8DE8120CC00FB664
:1002C00007FCFACFE889F989808185FFF5CFCE0157
:1002D0000E942101F1CF8B8DFE01E80FF11DE35A41
:1002E000FF4FF0820B8FEA89FB898081806207C013
:1002F000EE89FF896083E889F98980818064808341
:1003000081E090E0DF91CF911F910F91FF90EF90EE
:100310000895CF93DF93EC01888D8823C9F0EA8993
:10032000FB89808185FD05C0A889B9898C9186FDEE
:100330000FC00FB607FCF5CF808185FFF2CFA889EB
:10034000B9898C9185FFEDCFCE010E942101E7CFC5
:10035000DF91CF91089580E090E0892B29F00E94F1
:10036000170181110C940000089590E0FC01EC55F8
:10037000FF4F3491FC01E057FF4F2491FC01E458FA
:10038000FF4FE491EE2309F43BC0332339F13330BE
:1003900091F038F43130A9F0323001F584B58F7D19
:1003A00012C0373091F03830A1F03430B9F4809178
:1003B00080008F7D03C0809180008F7780938000C4
:1003C0000DC084B58F7784BD09C08091B0008F7750
:1003D00003C08091B0008F7D8093B000F0E0EE0FFD
:1003E000FF1FEE58FF4FA591B4918FB7F894EC9191
:1003F000611103C020952E2301C02E2B2C938FBF9B
:100400000895809168018F5F8093680180916601F3
:1004100090916701892B39F481E090E09093670116
:100420008093660104C0109267011092660160918A
:1004300066018AE00C94B501CF93DF9390E0FC0154
:10044000E057FF4F2491FC01E458FF4F849188232B
:1004500061F190E0880F991FFC01E859FF4FC591A9
:10046000D491FC01EE58FF4FA591B491611109C0E0
:100470009FB7F8948881209582238883EC912E235E
:100480000BC0623061F49FB7F8943881822F809559
:1004900083238883EC912E2B2C939FBF06C08FB7AC
:1004A000F894E8812E2B28838FBFDF91CF91089598
:1004B0002FB7F89460916E0170916F018091700177
:1004C000909171012FBF08958F929F92AF92BF922A
:1004D000CF92DF92EF92FF926B017C010E94580253
:1004E0004B015C01C60ED71EE81EF91E0E94580281
:1004F000681579058A059B0528F0C616D706E80613
:10050000F906A0F7FF90EF90DF90CF90BF90AF90EB
:100510009F908F9008950895CF93DF93EC0160E052
:100520008E810E94B50161E08E810E94B50160E07C
:100530008E810E94B5018BE891E00197F1F7DF9180
:10054000CF910895CF92DF92EF92FF920F931F9376
:10055000CF93DF937C016C0187E0C80ED11CC0E013
:10056000D0E0062F10E0B8010C2E02C075956795FB
:100570000A94E2F76170F60181916F010E94B50162
:100580002196C430D10579F7C701DF91CF911F9132
:100590000F91FF90EF90DF90CF900C948C02CF9250
:1005A000DF92EF92FF920F931F93CF93DF93EC01B3
:1005B000F62E642F8C810E94B5018D818F3F19F03A
:1005C00060E00E94B5018F850F2D10E084FF25C0EB
:1005D0006E0187E0C80ED11CE12CF12CB8010E2C65
:1005E00002C0759567950A94E2F76170F6018191F2
:1005F0006F010E94B501FFEFEF1AFF0A88E0E816CD
:10060000F10461F7CE01DF91CF911F910F91FF901F
:10061000EF90DF90CF900C948C02B80184E0759538
:1006200067958A95E1F7CE010E94A2026F2DCE0157
:10063000DF91CF911F910F91FF90EF90DF90CF90BE
:100640000C94A20241E00E94CF0281E090E0089564
:1006500040E00C94CF02EF92FF920F931F93CF9341
:10066000DF93EC01623018F08F8588608F876B8B89
:100670001C8A80E48D8B80E18E8B80E58F8B61E01E
:100680008C810E941C028D818F3F19F061E00E94D5
:100690001C0261E08E810E941C027E0187E0E80E50
:1006A000F11C00E010E08F8584FD03C084E090E041
:1006B00002C088E090E0081719074CF461E0F701E8
:1006C00081917F010E941C020F5F1F4FECCF8BE3D3
:1006D0009DE00197F1F760E08C810E94B50160E038
:1006E0008E810E94B5018D818F3F19F060E00E94DC
:1006F000B5016F8564FD1DC063E0CE010E94A202BA
:100700000BE416E4C8010197F1F763E0CE010E9403
:10071000A202C8010197F1F763E0CE010E94A20294
:1007200083E592E00197F1F762E0CE010E94A20218
:1007300016C06062CE010E9428038BE496E4019704
:10074000F1F76F856062CE010E94280383E592E095
:100750000197F1F76F856062CE010E9428036F85D3
:100760006062CE010E94280384E0888B6CE0CE0199
:100770000E94280361E0CE010E9428038BE39FE1E1
:100780000197F1F782E0898B66E0CE01DF91CF918E
:100790001F910F91FF90EF900C942803643008F0A4
:1007A00063E090917402691710F06FEF690FE62F04
:1007B000F0E0EF59FD4F9489682F690F606881E67A
:1007C00092E00C942803089580E090E008950E9440
:1007D000B3076115710579F0FB0101900020E9F77D
:1007E0003197AF01461B570BDC01ED91FC91028064
:1007F000F381E02D099480E090E008954F925F929C
:100800006F927F92EF92FF920F931F93CF93DF939C
:10081000CDB7DEB7A1970FB6F894DEBF0FBECDBF40
:100820007C01FA01CB0119A2223008F42AE08E01E2
:100830000F5D1F4F422E512C612C712CBF01A30163
:1008400092010E948B07F901CA01015011096A3017
:1008500014F4605D01C0695CD8016C93232B242BD8
:10086000252B61F7B801C7010E94E903A1960FB6D5
:10087000F894DEBF0FBECDBFDF91CF911F910F91D6
:10088000FF90EF907F906F905F904F9008950C9441
:10089000E9031F920F920FB60F9211242F933F93EB
:1008A0004F935F936F937F938F939F93AF93BF9378
:1008B000EF93FF938CE791E00E942101FF91EF916C
:1008C000BF91AF919F918F917F916F915F914F9168
:1008D0003F912F910F900FBE0F901F9018951F9270
:1008E0000F920FB60F9211242F938F939F93EF9334
:1008F000FF93E0918C01F0918D018081E091920154
:10090000F091930182FD12C09081809195018F5FDB
:100910008F7320919601821751F0E0919501F0E0DC
:10092000E458FE4F958F8093950101C08081FF911F
:10093000EF919F918F912F910F900FBE0F901F906D
:1009400018951F920F920FB60F9211242F933F9379
:100950008F939F93AF93BF9380916E0190916F019E
:10096000A0917001B091710130916D0123E0230FCE
:100970002D3720F40196A11DB11D05C026E8230FD7
:100980000296A11DB11D20936D0180936E0190937D
:100990006F01A0937001B0937101809169019091F2
:1009A0006A01A0916B01B0916C010196A11DB11D6E
:1009B0008093690190936A01A0936B01B0936C01DD
:1009C000BF91AF919F918F913F912F910F900FBE4B
:1009D0000F901F9018951F920F920FB60F9211242F
:1009E0002F933F934F935F936F937F938F939F9337
:1009F000AF93BF93EF93FF93E0910201F091030156
:100A00000995FF91EF91BF91AF919F918F917F9148
:100A10006F915F914F913F912F910F900FBE0F906B
:100A20001F9018951F920F920FB60F9211242F93BB
:100A30003F934F935F936F937F938F939F93AF9366
:100A4000BF93EF93FF93E0910001F09101010995AD
:100A5000FF91EF91BF91AF919F918F917F916F9196
:100A60005F914F913F912F910F900FBE0F901F906C
:100A70001895ECE7F1E01382128288EE93E0A0E093
:100A8000B0E084839583A683B78388E091E0918367
:100A9000808385EC90E09587848784EC90E097874D
:100AA000868780EC90E0918B808B81EC90E0938B3B
:100AB000828B82EC90E0958B848B86EC90E0978B18
:100AC000868B118E128E138E148EE9E1F2E016825F
:100AD000178210861186128613861486158616864E
:100AE0001786108A118A128A138A148A158AE1E6F7
:100AF000F2E0138212828AE191E09183808389E09F
:100B000084838FEF858388E0868387E0878386E010
:100B1000808785E0818784E0828713861486158626
:100B20001686178661E0CF010C942B03789484B568
:100B3000826084BD84B5816084BD85B5826085BDD9
:100B400085B5816085BD80916E00816080936E0067
:100B50001092810080918100826080938100809159
:100B6000810081608093810080918000816080930A
:100B700080008091B10084608093B1008091B000CA
:100B800081608093B00080917A00846080937A00C5
:100B900080917A00826080937A0080917A008160EF
:100BA00080937A0080917A00806880937A00109216
:100BB000C10010925D0210925E0210925F021092CC
:100BC000600210921B0210921C0210921D021092E1
:100BD0001E0268EB7BE080E090E00E9464028CE7FC
:100BE00091E090935C0280935B020E9487000E94D8
:100BF000580260931B0270931C0280931D02909315
:100C00001E0262E271E080915B0290915C020E94A0
:100C100047046AE070E080E090E00E94640281E0B6
:100C200080932F020E94870081E092E0909301015F
:100C300080930001809169008C7F826080936900BD
:100C4000E89A62E082E00E941C0264E081E692E0A1
:100C50000E942B0361E085E00E94CE0364E371E013
:100C600081E692E00E94470462E083E00E94CE03A6
:100C70006BE371E081E692E00E94470484EF882EE6
:100C800099249394A12CB12C0E945802672B682BB5
:100C9000692B41F40E94580262307105810591056B
:100CA00008F40BC10E945802609378017093790197
:100CB00080937A0190937B01C0907401D09075016C
:100CC000E0907601F09077016C157D058E059F050B
:100CD00040F4609374017093750180937601909352
:100CE0007701C0907401D0907501E0907601F0908A
:100CF00077019B01AC012C193D094E095F0969017F
:100D00007A013AEFC316D104E104F10408F4D5C026
:100D100060937401709375018093760190937701CD
:100D20008092270290922802A0922902B0922A0271
:100D300010922B0210922C0210922D0210922E0271
:100D400080911F0290912002A0912102B091220275
:100D50008093230290932402A0932502B09326024D
:100D60000E94580260931F02709320028093210218
:100D7000909322020E94580260931B0270931C02FF
:100D800080931D0290931E020E9458026B017C0109
:100D900066E471E080915B0290915C020E944704DE
:100DA0002AE041E050E060E070E080915B029091C9
:100DB0005C020E94FE036DE471E080915B02909101
:100DC0005C020E9447042AE0B701A60180915B0201
:100DD00090915C020E94FE036FE471E080915B02DF
:100DE00090915C020E94470480911F029091200222
:100DF000A0912102B0912202B701A601481B590B14
:100E00006A0B7B0B2AE080915B0290915C020E944E
:100E1000FE036FE471E080915B0290915C020E949E
:100E2000470440911F02509120026091210270916D
:100E300022028091230290912402A0912502B09178
:100E40002602481B590B6A0B7B0B2AE080915B0240
:100E500090915C020E94FE0361E571E080915B026B
:100E600090915C020E9447040E945802AB01BC01B1
:100E70002AE080915B0290915C020E94FE03E09068
:100E80005B02F0905C0263E571E0C7010E94E90338
:100E900061E371E0C7010E94E90365E070E080E072
:100EA00090E00E9464020E94580260931F027093B7
:100EB0002002809321029093220260E080E00E9451
:100EC000CE036AE571E081E692E00E9447042AE0E1
:100ED00040E050E0BA0181E692E00E94FE0363E048
:100EE00080E00E94CE0360E671E081E692E00E941D
:100EF0004704409172015091730160E070E02AE074
:100F000081E692E00E94FE0361E080E00E94CE0351
:100F10000E94AB01B9CEA1E21A2EAA1BBB1BFD0198
:100F20000DC0AA1FBB1FEE1FFF1FA217B307E407C8
:100F3000F50720F0A21BB30BE40BF50B661F771F20
:100F4000881F991F1A9469F7609570958095909500
:100F50009B01AC01BD01CF010895EE0FFF1F05906D
:100F6000F491E02D099481E090E0F8940C94B80796
:040F7000F894FFCF23
:100F74008B028B02000000004201AF00DA008901FD
:100F84000B01E900FD00000000002203AF00E403B0
:100F9400E303564D4450565F317C315F564D445007
:100FA400560D0A004341444F5245005445434E4FA9
:100FB4004C4F47494100564D4450455F003A323A40
:100FC400007C005F564D4450450052504D3A20007D
:060FD4004D41583A2000D7
:107E0000112484B714BE81FFF0D085E080938100F7
:107E100082E08093C00088E18093C10086E0809377
:107E2000C20080E18093C4008EE0C9D0259A86E02C
:107E300020E33CEF91E0309385002093840096BBD3
:107E4000B09BFECF1D9AA8958150A9F7CC24DD24C4
:107E500088248394B5E0AB2EA1E19A2EF3E0BF2EE7
:107E6000A2D0813461F49FD0082FAFD0023811F036
:107E7000013811F484E001C083E08DD089C08234E0
:107E800011F484E103C0853419F485E0A6D080C0E4
:107E9000853579F488D0E82EFF2485D0082F10E0AE
:107EA000102F00270E291F29000F111F8ED06801E7
:107EB0006FC0863521F484E090D080E0DECF843638
:107EC00009F040C070D06FD0082F6DD080E0C81688
:107ED00080E7D80618F4F601B7BEE895C0E0D1E017
:107EE00062D089930C17E1F7F0E0CF16F0E7DF06D8
:107EF00018F0F601B7BEE89568D007B600FCFDCFD4
:107F0000A601A0E0B1E02C9130E011968C91119780
:107F100090E0982F8827822B932B1296FA010C0160
:107F200087BEE89511244E5F5F4FF1E0A038BF0790
:107F300051F7F601A7BEE89507B600FCFDCF97BE46
:107F4000E89526C08437B1F42ED02DD0F82E2BD052
:107F50003CD0F601EF2C8F010F5F1F4F84911BD097
:107F6000EA94F801C1F70894C11CD11CFA94CF0C13
:107F7000D11C0EC0853739F428D08EE10CD085E9AC
:107F80000AD08FE07ACF813511F488E018D01DD067
:107F900080E101D065CF982F8091C00085FFFCCF94
:107FA0009093C60008958091C00087FFFCCF809118
:107FB000C00084FD01C0A8958091C6000895E0E648
:107FC000F0E098E1908380830895EDDF803219F02E
:107FD00088E0F5DFFFCF84E1DECF1F93182FE3DFCA
:107FE0001150E9F7F2DF1F91089580E0E8DFEE27F6
:047FF000FF270994CA
:027FFE00040479
:0400000300007E007B
:00000001FF