:100000000C9462000C948A000C948A000C948A0070
:100010000C948A000C948A000C948A000C948A0038
:100020000C948A000C948A000C948A000C948A0028
:100030000C948A000C948A000C948A000C948A0018
:100040000C949C090C948A000C9430080C940A08B7
:100050000C948A000C948A000C948A000C948A00F8
:100060000C948A000C948A000000000025002800EF
:100070002B000000000023002600290000000008DB
:10008000000201000003040700000000000000005F
:1000900000000000240027002A00010204081020AC
:1000A000408001020408102001020408102004040A
:1000B0000404040404040202020202020303030310
:1000C00003033E1B11241FBECFEFD8E0DEBFCDBF20
:1000D00012E0A0E0B1E0E6EEFDE302C005900D9273
:1000E000A63CB107D9F724E0A6ECB2E001C01D920E
:1000F000AB3CB207E1F710E0C2E6D0E004C02197C4
:10010000FE010E94AA1CC136D107C9F70E948416BD
:100110000C94F11E0C9400000895CF93DF931F926E
:10012000CDB7DEB76983DC01ED91FC910280F381EC
:10013000E02D41E050E0BE016F5F7F4F09950F90C9
:10014000DF91CF910895DC01ED91FC91048CF58D48
:10015000E02D099591E089270895862F089581E083
:10016000862708950F931F93CF93DF931F92CDB7E8
:10017000DEB78C01DC01ED91FC910480F581E02D6E
:100180000995892B51F0BE016F5F7F4FF80184857F
:100190000E948A0A898190E002C08FEF9FEF0F9042
:1001A000DF91CF911F910F910895FC0184850C94EC
:1001B000CB0ACF93DF931F92CDB7DEB741E050E07B
:1001C000BE016F5F7F4FFC0184850E94CB0A181629
:1001D00019061CF4898190E002C08FEF9FEF0F9009
:1001E000DF91CF910895FC018485843011F00C9447
:1001F000A90A80E090E00895AF92BF92CF92DF927B
:10020000EF92FF920F931F93CF93DF93CDB7DEB79B
:100210006E970FB6F894DEBF0FBECDBF6C017B01A9
:100220005A016DE072E0CE0149960E94A6156FEB6F
:1002300071E083EF92E00E94B60BB60183EF92E08B
:100240000E94B60B61ED71E083EF92E00E94B60B65
:100250008701AE0CBF1C0A151B0531F17801F801AE
:1002600061918F0183EF92E00E947D16F7018081FA
:1002700089831A82ED8CFE8CFFEFEF1AFF0AB7011B
:10028000CE0149960E944F15882329F3298D3A8D76
:100290008D8D9E8DBE016F5F7F4F820F931F0E94D9
:1002A000D01EFE8EED8ED7CF64ED71E0CE010196AB
:1002B0000E94A615B601CE0101960E943015182F96
:1002C000CE0101960E94A115112341F0CE0149965D
:1002D0000E94DE1383E00E94F708F4C06FED71E026
:1002E000CE0101960E94A615B601CE0101960E948C
:1002F0003015182FCE0101960E94A115112309F483
:10030000E1C01C8A1B8A1E8A1D8A188E1F8A698D6D
:100310007A8D6115710531F04D8D5E8DCE0143965C
:100320000E9476156DE072E0CE0107960E94A61538
:100330006EEE71E0CE0101960E94A615AE01495FF6
:100340005F4FBE016F5F7F4FCE0143960E94E9135E
:10035000CE0101960E94A115CE0107960E94A1151B
:100360006DE072E0CE0107960E94A61562EF71E083
:10037000CE0101960E94A615AE01495F5F4FBE01F6
:100380006F5F7F4FCE0143960E94E913CE01019625
:100390000E94A115CE0107960E94A1156DE072E0A2
:1003A000CE0107960E94A61564EF71E0CE0101967A
:1003B0000E94A615AE01495F5F4FBE016F5F7F4F80
:1003C000CE0143960E94E913CE0101960E94A11529
:1003D000CE0107960E94A1156DE072E0CE0107964E
:1003E0000E94A61566EF71E0CE0101960E94A61547
:1003F000AE01495F5F4FBE016F5F7F4FCE014396F5
:100400000E94E913CE0101960E94A115CE01079624
:100410000E94A11523E030E040E050E0BE016D5E97
:100420007F4FCE010D960E94BB1526E030E043E0E1
:1004300050E0BE016D5E7F4FCE0107960E94BB1556
:100440002F89388D46E050E0BE016D5E7F4FCE01B2
:1004500001960E94BB15CE010D960E94DE1385E029
:100460000E94F708CE0107960E94DE1386E00E94E4
:10047000F708CE0101960E94DE1389E00E94F7087A
:10048000CE010D960E94DE130E94510FCE010796F9
:100490000E94DE130E94510FCE0101960E94DE13CE
:1004A0000E94510FCE0101960E94A115CE01079620
:1004B0000E94A115CE010D960E94A115CE01439672
:1004C0000E94A1156BE072E083EF92E00E94A10B05
:1004D000CE0149960E94A1156E960FB6F894DEBF24
:1004E0000FBECDBFDF91CF911F910F91FF90EF9085
:1004F000DF90CF90BF90AF90089508958CBD9DBDC3
:100500000895CF92DF92EF92FF921F93CF93DF93E4
:10051000FC011485143099F1EC0180E590E00E9413
:100520007E0268E070E0812F0E9466130E949009AD
:100530006B017C01CE010E94F30E8823B1F061E0D3
:1005400070E080E090E00E9456090E949009DC0172
:10055000CB018C199D09AE09BF09883E9340A105C6
:10056000B10540F38C850E941E0BEC85F0E0EE0F88
:10057000FF1FE552FD4F1182108284E08C87DF91CE
:10058000CF911F91FF90EF90DF90CF9008958F92C1
:100590009F92AF92BF92CF92DF92EF92FF920F9312
:1005A0001F93CF936C015B017A01FC01C485C430B9
:1005B00041F481E090E0F6019383828380E090E053
:1005C0004EC08A014130584010F000E018E080E54C
:1005D00090E00E947E028C2F0E944A134C0163E03F
:1005E00070E08C2F0E94870D873111F08C3121F43F
:1005F0008016910660F302C000E010E080E590E014
:100600000E947E029801A50160E070E08C2F0E949C
:10061000E51260E270E08C2F0E94661362E070E0E9
:100620008C2F0E94870D84FD10C063E070E08C2F3A
:100630000E94870D811104C08C2F0E941E0BB9CF20
:1006400080E590E00E947E02E9CF40E162E070E048
:100650008C2F0E947D0D012B09F4ABCFC701CF91E8
:100660001F910F91FF90EF90DF90CF90BF90AF90D0
:100670009F908F900895CF92DF92FF920F931F93D8
:10068000CF93DF93FC012485243009F077C06A0101
:10069000EB018C01F12C8F2D0E94AD0D811103C057
:1006A000F801F48607C08B7F8831D1F3F394F4E02E
:1006B000FF12F1CFF8018485843009F45FC02091E6
:1006C0000001309101012F5F3F4F11F420E030EC29
:1006D00030930101209300014091000150910101EC
:1006E00020E061E00E94320BF801F4848A818F3FA0
:1006F00051F48B818F3F91F48C818F3F79F48D8100
:100700008F3F61F438C0811109C08B81811106C00F
:100710008C81811103C08D81882369F1C114D104BA
:1007200051F180E590E00E947E02BE016E5F7F4F36
:100730008F2D90E0982F882744E050E0845F9B4FF6
:100740000E94390AB6018F2D0E942B0E64E070E0E2
:100750008F2D0E946613C8010E94F30E873189F025
:1007600061E070E080E090E00E945609C8010E94BC
:10077000F30E8111F0CF84E0F801848780E090E0EF
:1007800002C081E090E0DF91CF911F910F91FF9027
:10079000DF90CF9008952F923F924F925F926F9289
:1007A0007F928F929F92AF92BF92CF92DF92EF9201
:1007B000FF920F931F93CF93DF93CDB7DEB765976B
:1007C0000FB6F894DEBF0FBECDBF7C016B013A01BE
:1007D000FB0120E080E090E06AE03191332309F1F1
:1007E00040ED430F4A3080F4689FA001699F500D8F
:1007F0001124CA01C097830F911D37FD9A958F3F31
:10080000910559F350F313C03E3289F4233079F047
:10081000D301A20FB11D12968C932F5F80E090E060
:10082000DCCF233021F4F301858381E021C0F7017F
:1008300042815381648175818091E2039091E30349
:10084000A091E403B091E503481759076A077B07B5
:1008500009F49EC10E9490098701085F1F4F6F70C5
:1008600077277C5FC8010E94C60D813019F080E0B7
:1008700090E0F3C187EB91E09A838983F70182814D
:100880009381A481B5818B839C83AD83BE8345E333
:1008900050E0BE016F5F7F4FC8010E94B30E892BED
:1008A00019F4C12CD12C6FC10E949009F7017783F4
:1008B00066837627672776277A83698342E050E04C
:1008C000BE016F5F7F4FC8010E94BD0C81E090E0C8
:1008D0009E878D8742E050E0BE01635F7F4FC80175
:1008E0000E94BD0C80E091E09E878D8742E050E041
:1008F000BE01635F7F4FC8010E94BD0C1E861D862E
:1009000042E050E0BE01635F7F4FC8010E94BD0C12
:1009100042E050E0BE01635F7F4FC8010E94BD0C02
:1009200042E050E0BE01635F7F4FC8010E94BD0CF2
:100930005601F5018081882311F1F6015F01819153
:10094000811115C045018C189D081814190494F4E0
:100950008F8641E050E0BE01615F7F4FC8010E9479
:10096000BD0CA401B601C8010E94BD0C03C08E32AB
:1009700029F7E8CF6501FFEFCF1ADF0ADACF1F862C
:1009800041E050E0BE01615F7F4FC8010E94BD0C95
:10099000C12CDD24D394DE86CD8642E050E0BE013A
:1009A000635F7F4FC8010E94BD0CDE86CD8642E0AA
:1009B00050E0BE01635F7F4FC8010E94BD0CC801BB
:1009C0000E94F30D892B09F46CCF63E0A62EB12CA5
:1009D000F2E06F0E711C0E9490091B012C01C801EE
:1009E0000E94640C18161906A4F00E949009DC01FC
:1009F000CB0182199309A409B50989389341A1054E
:100A0000B105D0F462E370E080E090E00E94560906
:100A1000E6CFF7014281538164817581808D918D8C
:100A2000A28DB38D481759076A077B0741F4848D5F
:100A3000958DC59721F406C02FEF3FEF9AC02EEF9A
:100A40003FEF97C0F70181A192A10C970CF4A6C0CB
:100A50004CE050E0BE016F5F7F4FC8010E941C0C4C
:100A60008B8190E0982F88272C81822B9A8B898B01
:100A7000298130E0322F22274A81242BF701468139
:100A800057814217530709F086C097FF84C08F70C3
:100A90009270892B09F0DEC0CF80D12CDC2CCC24C5
:100AA0008885C82AC114D10409F4D1C0812C912CA5
:100AB0008D8190E0982F88272E81822B88169906A9
:100AC00008F46FC0812C912C41E050E0BE016D5EB6
:100AD0007F4FC8010E941C0C8B89982F907C09F0D5
:100AE00093C0811186C08B898111EECF42E050E026
:100AF000BE01615F7F4FC8010E941C0C42E050E0C4
:100B0000BE01635F7F4FC8010E941C0CC8010E9498
:100B10003B0CC8010E943B0CC8010E943B0CC80161
:100B20000E943B0C42E050E0BE016F5E7F4FC80167
:100B30000E941C0C8F8598898115914009F069C02D
:100B40002D853E853227232732272130310509F0B4
:100B500060C089899A898115944009F075C044E084
:100B600050E0B301C8012C8B3D8B0E941C0C2C89DA
:100B70003D896901F1E0AF1AB10829F02FEFC216E3
:100B8000D20609F428CFC8010E94680DC60165C0CD
:100B90008EEF9FEF62C02CEF3FEFEBCF2DEF3FEFDB
:100BA000E8CF41E050E0BE01635F7F4FC8010E9483
:100BB0001C0C8D85811113C08D858111F2CFC80168
:100BC0000E943B0CC8010E943B0CC8010E943B0CD8
:100BD000C8010E943B0CFFEF8F1A9F0A69CF8D85D9
:100BE0009FEF980F9D87882339F3C8010E943B0C23
:100BF000F6CF8B899FEF980F9B8B882309F473CFD7
:100C0000C8010E943B0CF5CFC8010E943B0C1B8A17
:100C10006ACF412C512C89899A899827892798274E
:100C20004816590638F4C8010E943B0C8FEF481A49
:100C3000580AF1CFEFEF8E1A9E0A8C149D0409F02A
:100C400043CF26EF3FEF95CF27EF3FEF92CF2AEF2D
:100C50003FEF8FCF2BEF3FEF8CCF65960FB6F89419
:100C6000DEBF0FBECDBFDF91CF911F910F91FF90DF
:100C7000EF90DF90CF90BF90AF909F908F907F903C
:100C80006F905F904F903F902F900895CF92DF929A
:100C9000EF92FF920F931F93CF93DF93CDB7DEB701
:100CA000AF970FB6F894DEBF0FBECDBF7C016A01CF
:100CB00007EB11E01A8309831C861B8688EE93E0FC
:100CC000A0E0B0E08D879E87AF87B88B85E491E088
:100CD0009A878987188F0F8B198E1A8E1B8E1C8E00
:100CE00084E089A31DA30CA31EA21FA218A619A607
:100CF0008091DA039091DB03A091DC03B091DD03D6
:100D00008CA79DA7AEA7BFA78B839C83AD83BE8313
:100D100018861F82AE014C5D5F4FCE0101960E9486
:100D2000CB0381309105B1F4D701ED91FC9104849E
:100D3000F585E02D1BA70AA78EA19FA1A8A5B9A59F
:100D40008CA79DA7AEA7BFA7A601BE01665D7F4F7A
:100D5000C7010995AF960FB6F894DEBF0FBECDBFA1
:100D6000DF91CF911F910F91FF90EF90DF90CF9087
:100D70000895FC01918D828D981761F0828DDF01BD
:100D8000A80FB11D5D968C91928D9F5F9F73928F7E
:100D900090E008958FEF9FEF0895FC01918D828D73
:100DA000981731F0828DE80FF11D858D90E0089540
:100DB0008FEF9FEF0895FC01918D228D892F90E098
:100DC000805C9F4F821B91098F739927089583EF51
:100DD00092E00E94DB0621E0892B09F420E0822FBB
:100DE0000895FC01848DDF01A80FB11DA35ABF4FE8
:100DF0002C91848D90E001968F739927848FA6891A
:100E0000B7892C93A089B1898C9180648C93938D40
:100E1000848D981306C00288F389E02D80818F7D30
:100E200080830895EF92FF920F931F93CF93DF93E8
:100E3000EC0181E0888F9B8D8C8D981305C0E8892B
:100E4000F989808185FD24C0F62E0B8D10E00F5F9F
:100E50001F4F0F731127E02E8C8DE8120CC00FB6B8
:100E600007FCFACFE889F989808185FFF5CFCE01AB
:100E70000E94F106F1CF8B8DFE01E80FF11DE35AC0
:100E8000FF4FF0820B8FEA89FB898081806207C067
:100E9000EE89FF896083E889F98980818064808395
:100EA00081E090E0DF91CF911F910F91FF90EF9043
:100EB0000895CF93DF93EC01888D8823C9F0EA89E8
:100EC000FB89808185FD05C0A889B9898C9186FD43
:100ED0000FC00FB607FCF5CF808185FFF2CFA88940
:100EE000B9898C9185FFEDCFCE010E94F106E7CF45
:100EF000DF91CF91089580E090E0892B29F00E9446
:100F0000E70681110C94000008953FB7F894809192
:100F1000CD029091CE02A091CF02B091D00226B521
:100F2000A89B05C02F3F19F00196A11DB11D3FBF21
:100F3000BA2FA92F982F8827820F911DA11DB11DAF
:100F4000BC01CD0142E0660F771F881F991F4A95AB
:100F5000D1F708958F929F92AF92BF92CF92DF9276
:100F6000EF92FF920F931F93CF93DF937C018B013E
:100F70006C0182E0C80ED11C4701E5E08E0E911C89
:100F8000C0E0D0E0F60141916F0150E060E070E018
:100F90002AE0C8010E9420165C016EE2C8010E948E
:100FA0007D168A0D9B1DC80FD91FC814D90451F78F
:100FB000F701458150E060E070E02AE0C8010E943E
:100FC00020168C0F9D1FDF91CF911F910F91FF90E5
:100FD000EF90DF90CF90BF90AF909F908F9008954B
:100FE0000E94A71E1F93CF93DF93182F66E270E035
:100FF0000E94870DC82FD0E067E270E0812F0E9429
:10100000870DDC2FCC279E01282BC901DF91CF91C2
:101010001F9108951F920F920FB60F9211242F93D4
:101020003F934F935F936F937F938F939F93AF9370
:10103000BF93EF93FF9383EF92E00E94F106FF913D
:10104000EF91BF91AF919F918F917F916F915F9140
:101050004F913F912F910F900FBE0F901F901895B9
:101060001F920F920FB60F9211242F938F939F937D
:10107000EF93FF93E0910303F09104038081E091EB
:101080000903F0910A0382FD12C0908180910C0344
:101090008F5F8F7320910D03821751F0E0910C0345
:1010A000F0E0ED50FD4F958F80930C0301C08081DF
:1010B000FF91EF919F918F912F910F900FBE0F9005
:1010C0001F901895833081F028F4813099F0823098
:1010D000A1F008958730A9F08830B9F08430D1F4B8
:1010E000809180008F7D03C0809180008F778093F6
:1010F0008000089584B58F7702C084B58F7D84BD4C
:1011000008958091B0008F7703C08091B0008F7DEB
:101110008093B00008951F93CF93DF93282F30E082
:10112000F901E458FF4F8491F901E656FF4FD4913D
:10113000F901E255FF4FC491CC23C9F0162F81115C
:101140000E946208EC2FF0E0EE0FFF1FE859FF4FFE
:10115000A591B4918FB7F894111105C09C91ED2F12
:10116000E095E92302C0EC91ED2BEC938FBFDF916A
:10117000CF911F910895CF93DF9390E0FC01E65645
:10118000FF4F2491FC01E255FF4F8491882361F1C8
:1011900090E0880F991FFC01E057FF4FC591D49153
:1011A000FC01E859FF4FA591B491611109C09FB7A7
:1011B000F8948881209582238883EC912E230BC09C
:1011C000623061F49FB7F8943881822F8095832331
:1011D0008883EC912E2B2C939FBF06C08FB7F89479
:1011E000E8812E2B28838FBFDF91CF9108951F9325
:1011F000CF93DF93182FEB0161E00E94BB0820978B
:1012000011F460E004C0CF3FD10539F461E0812FD3
:10121000DF91CF911F910C948B08E12FF0E0E458FF
:10122000FF4FE491E330F9F048F4E130B9F0E230F7
:10123000A1F584B5806284BDC8BD34C0E730E9F053
:10124000E83019F1E43049F58091800080628093A4
:101250008000D0938B00C0938A0024C084B580683E
:1012600084BDC7BD1FC080918000806880938000CE
:10127000D0938900C093880015C08091B000806829
:101280008093B000C093B3000DC08091B000806225
:101290008093B000C093B40005C0C038D1050CF0F5
:1012A000B5CFAFCFDF91CF911F9108958F929F92CD
:1012B000AF92BF92CF92DF92EF92FF926B017C01CF
:1012C0000E9485074B015C01C114D104E104F104C3
:1012D000F1F00E948507DC01CB0188199909AA0960
:1012E000BB09883E9340A105B10570F321E0C21A05
:1012F000D108E108F10888EE880E83E0981EA11C51
:10130000B11CC114D104E104F10419F7DDCFFF9041
:10131000EF90DF90CF90BF90AF909F908F90089507
:101320002FB7F8946091C9027091CA028091CB02E4
:101330009091CC022FBF08951F920F920FB60F927B
:1013400011242F933F938F939F93AF93BF938091DB
:10135000C9029091CA02A091CB02B091CC02309107
:10136000C80223E0230F2D3720F40196A11DB11DE3
:1013700005C026E8230F0296A11DB11D2093C802C7
:101380008093C9029093CA02A093CB02B093CC027F
:101390008091CD029091CE02A091CF02B091D00267
:1013A0000196A11DB11D8093CD029093CE02A09312
:1013B000CF02B093D002BF91AF919F918F913F9197
:1013C0002F910F900FBE0F901F9018952A9A089595
:1013D0002A9808951F93CF93DF93182F60E270E04F
:1013E0000E94870DC82FD0E061E270E0812F0E943B
:1013F000870DDC2FCC279E01282BC901DF91CF91CF
:101400001F9108958EBD00000DB407FEFDCF8EB56F
:101410000895CF92DF92EF92FF920F931F93CF9395
:10142000DF93EC017A018B016C01C40ED51ECC1543
:10143000DD05A9F00E94E8098FE00E94020A8D2FC5
:101440000E94020A8C2F0E94020A219680E00E94CC
:10145000020AF80181938F010E94E609E8CFC701D3
:10146000DF91CF911F910F91FF90EF90DF90CF9080
:101470000895CF92DF92EF92FF920F931F93CF9335
:10148000DF93EC017A018B016C01C40ED51ECC15E3
:10149000DD05A1F00E94E80980EF0E94020A8D2F6D
:1014A0000E94020A8C2F0E94020A2196F801819163
:1014B0008F010E94020A0E94E609E9CFC701DF916D
:1014C000CF911F910F91FF90EF90DF90CF900895F3
:1014D0001F93CF93DF9300D0CDB7DEB7182F6A8369
:1014E00099830E94E80980EF0E94020A9981892F5E
:1014F0000E94020A812F0E94020A6A81862F0E949E
:10150000020A0E94E60981E00F900F90DF91CF91CF
:101510001F9108951F93CF93DF9300D0CDB7DEB70F
:10152000182F80E590E069837A830E947E0221E093
:1015300041E050E069817A81812F0E9476130E94F8
:101540007D0281E090E00F900F90DF91CF911F918D
:101550000895FF920F931F93CF93DF93F82E80E5AA
:1015600090E00E947E02C0E0D0E08F2D0E94F20742
:101570008C01892B21F08F2D0E94F207EC01C017FE
:10158000D10799F70E947D02CE01DF91CF911F9183
:101590000F91FF900895AF92BF92CF92DF92EF929A
:1015A000FF921F93CF93DF93182F5B017A0180E5A1
:1015B00090E00E947E02C0E0D0E0812F0E94F207FE
:1015C0006C01892B21F0812F0E94F207EC01CC15D0
:1015D000DD0599F7209799F463E070E0812F0E9470
:1015E000870D8431F1F08823E1F0C1E0D0E08C3147
:1015F00011F4C0E0D0E0D195C195D10912C0EC162C
:10160000FD060CF4E7011C161D065CF420E0AE019B
:10161000B501812F0E94761360E470E0812F0E9453
:1016200066130E947D02CE01DF91CF911F91FF9042
:10163000EF90DF90CF90BF90AF900895CF93C82FD9
:1016400080E590E00E947E0260E170E08C2F0E94B5
:1016500066134FEF62E070E08C2F0E947D0DCF91FA
:101660000C947D02FF920F931F93CF93DF9300D0D2
:10167000CDB7DEB7F82E8A012A8369830E941E0B3C
:1016800080E590E00E947E022A816981462F422BEC
:1016900060E070E08F2D0E947D0D0115110551F461
:1016A0000091C6021091C7020F5F1F4F1093C7022F
:1016B0000093C602412F64E070E08F2D0E947D0DE3
:1016C000402F65E070E08F2D0E947D0D61E070E09D
:1016D0008F2D0E9466130E947D0281E00F900F9073
:1016E000DF91CF911F910F91FF900895CF92DF92DC
:1016F000EF92FF920F931F93CF93DF936C017A01C8
:101700008B01C0E0D0E0CE15DF0589F0D8016D91E6
:101710008D01D601ED91FC910190F081E02DC60183
:101720000995892B11F47E0102C02196ECCFC701E7
:10173000DF91CF911F910F91FF90EF90DF90CF90AD
:1017400008956115710579F0FB0101900020E9F71A
:101750003197AF01461B570BDC01ED91FC910280E4
:10176000F381E02D099480E090E008950C94A10BA2
:101770000895CF93DF931F92CDB7DEB76983DC0165
:10178000ED91FC910280F381E02D41E050E0BE013B
:101790006F5F7F4F09950F90DF91CF910895FC0106
:1017A000818D928D0895FC0184899589089527EB98
:1017B00031E0FC0131832083FB014089518962893A
:1017C0007389FC0142835383648375830895DC012C
:1017D000ED91FC91028CF38DE02D099480E0089549
:1017E000FC019485FB018485981303C081E094304B
:1017F00009F480E0089521E0FC018485843009F437
:1018000020E0822F0895CF93DF931F92CDB7DEB7EC
:10181000FC01218D328D232B49F0BE016F5F7F4F7C
:10182000808D0E948A0A898190E002C08FEF9FEF2D
:101830000F90DF91CF910895CF93DF93FC01218D1D
:10184000328D2115310519F48FEF9FEF11C0EC0196
:101850004217530708F0A901888D0E94CB0A181679
:10186000190694F7298D3A8D281B390B3A8F298F49
:10187000DF91CF9108950F931F93CF93DF931F9222
:10188000CDB7DEB7FC01218D328D232B61F08C01A9
:1018900041E050E0BE016F5F7F4F808D0E94CB0A18
:1018A000181619061CF08FEF9FEF08C0F801818D04
:1018B000928D0197928F818F898190E00F90DF91B7
:1018C000CF911F910F9108950F931F93CF93DF93A3
:1018D000CDB7DEB728970FB6F894DEBF0FBECDBFE9
:1018E0008C01F801818D928D892B49F0D801ED9101
:1018F000FC910680F781E02DC8010995F2CF808D1B
:101900000E94A90A181619065CF548E050E0BE01CD
:101910006F5F7F4FD80158968C910E94CB0A9C0133
:1019200018161906DCF489819A81AB81BC81F80113
:10193000808B918BA28BB38B8D8190E0982F882721
:101940002E81820F911D958B848B2F8130E0322F59
:1019500022278885280F311D328F218FC90102C0AF
:1019600080E090E028960FB6F894DEBF0FBECDBFA2
:10197000DF91CF911F910F910895AF92BF92CF92B7
:10198000DF92FF920F931F93CF93DF938C015B0144
:10199000EA01FC01C688D788F08C80E590E00E94BF
:1019A0007E028F2D0E944A138C179D0720F48F2DE5
:1019B0000E944A13EC019E01A501B6018F2D0E94E1
:1019C000E5120E947D02F801868997898C0F9D1F80
:1019D000978B868BCE01DF91CF911F910F91FF9056
:1019E000DF90CF90BF90AF900895CF92DF92EF92AB
:1019F000FF920F931F93CF93DF93CDB7DEB7AF97CF
:101A00000FB6F894DEBF0FBECDBF7C016A0107EBB5
:101A100011E01A8309831C861B8688EE93E0A0E000
:101A2000B0E08D879E87AF87B88B85E491E09A8779
:101A30008987188F0F8B198E1A8E1B8E1C8E84E04F
:101A400089A31DA30CA31EA21FA218A619A68091EC
:101A5000DA039091DB03A091DC03B091DD038CA746
:101A60009DA7AEA7BFA78B839C83AD83BE8318863B
:101A70001F82AE014C5D5F4FCE0101960E94CB03E9
:101A800081309105B1F4D701ED91FC910288F38981
:101A9000E02D1BA70AA78EA19FA1A8A5B9A58CA779
:101AA0009DA7AEA7BFA7A601BE01665D7F4FC70178
:101AB0000995AF960FB6F894DEBF0FBECDBFDF918C
:101AC000CF911F910F91FF90EF90DF90CF900895ED
:101AD000CF93DF93EC01888D843061F00E941E0B60
:101AE000E88DF0E0EE0FFF1FE552FD4F11821082EE
:101AF00084E0888FDF91CF9108959B0190E0049658
:101B0000982F8827642F820F931F0C94680A0F93D5
:101B10001F93CF93DF931F92CDB7DEB790E004966B
:101B2000982F88278C01060F171F0E94E8098FE065
:101B30000E94020A812F0E94020A802F0E94020A3C
:101B400080E00E94020A89830E94E60989810F9041
:101B5000DF91CF911F910F9108951F93CF93DF9342
:101B60001F92CDB7DEB7182F80E590E00E947E026D
:101B700063E070E0812F0E94870D89830E947D02BF
:101B800089810F90DF91CF911F910895EF92FF927D
:101B90001F93CF93DF93FC01208D243011F080E060
:101BA0001CC07B01EC0110E0812F0E94AD0D811162
:101BB00002C0188F05C08831E1F31F5F1430A1F710
:101BC000888D843061F3FD86EC861A8E198E20E0B4
:101BD000A70162E00E94320B81E0DF91CF911F915B
:101BE000FF90EF900895CF93FC01C08D80E590E0C9
:101BF0000E947E0260E270E08C2F0E94661362E019
:101C000070E08C2F0E94870D84FD19C062E070E0A7
:101C10008C2F0E94870D83FF0BC048E162E070E0CB
:101C20008C2F0E947D0D0E947D0280E090E011C00B
:101C30000E947D0280E590E00E947E02E0CF40E1BC
:101C400062E070E08C2F0E947D0D0E947D0281E099
:101C500090E0CF910895CF93DF93C82FD62F472FD1
:101C600060E170E00E947D0D4D2F61E170E08C2FEE
:101C7000DF91CF910C947D0DBF92CF92DF92EF92C6
:101C8000FF920F931F93CF93DF9300D000D000D02B
:101C9000CDB7DEB7FC01208D243009F053C06A01B6
:101CA0007B018C01B12C63E070E08B2D0E94870DCD
:101CB000811103C0F801B08E06C08831D9F3B39406
:101CC000F4E0BF12F0CFF801808D8430D9F196E0B6
:101CD000E5E1F1E0DE01119601900D929A95E1F7B0
:101CE000F70193819F779C8394819D8395819E8347
:101CF000B7016E5F7F4F90E0982F882744E050E057
:101D0000845F9B4F0E94390AB601F801808D0E94C2
:101D10002B0EF801808D90E0982F882746E050E048
:101D2000BE016F5F7F4F8A5F9B4F0E94390AF801A7
:101D3000128E118E20E8A60162E0808D0E94320B87
:101D400081E001C080E026960FB6F894DEBF0FBE9A
:101D5000CDBFDF91CF911F910F91FF90EF90DF905A
:101D6000CF90BF900895FF920F931F93CF93DF936F
:101D7000FB01DC0157961C921E9256975896FC90D8
:101D80008281811109C08381811106C08481811102
:101D900003C085818823F9F041155105E1F08A01DE
:101DA000EF0180E590E00E947E02BE016E5F7F4FF2
:101DB0002F2D30E0922F882744E050E0845F9B4F26
:101DC0000E94390AB8018F2D0E942B0E0E947D02BD
:101DD00081E090E002C080E090E0DF91CF911F9120
:101DE0000F91FF900895FC018485843011F00C94CC
:101DF000AD0D80E00895CF93DF93FC01248524305E
:101E0000D1F0EC010E94F30E843181F0882371F04F
:101E1000883161F08C3161F4E881F9810480F581C9
:101E2000E02DCE01099521E0892B19F420E001C0B5
:101E300021E0822F01C080E0DF91CF910895CF9201
:101E4000DF92EF92FF92CF93DF93AB01BC0177FF5C
:101E50001DC06A017B016DE283EF92E00E947D1656
:101E6000EC0144275527BA014C195D096E097F0919
:101E70002AE083EF92E00E9420168C0F9D1FDF91D5
:101E8000CF91FF90EF90DF90CF9008952AE083EFFD
:101E900092E0DF91CF91FF90EF90DF90CF900C9484
:101EA0002016CF93DF930E941F0FEC016BE072E0CE
:101EB00083EF92E00E94A10B8C0F9D1FDF91CF91C9
:101EC0000895E3EFF2E0A089B18982E08C93A485C4
:101ED000B5851C92A685B78580E18C93108EA48968
:101EE000B58986E08C93A289B3898C9180618C93AB
:101EF000A289B3898C9188608C93A289B3898C91D3
:101F000080688C930288F389E02D80818F7D8083A7
:101F10000895CF92DF92EF92FF920F931F93CF938A
:101F2000DF93CDB7DEB7C254D1090FB6F894DEBF48
:101F30000FBECDBFFC0182819381A481B581239620
:101F40008CAF9DAFAEAFBFAF239721E023962FAFED
:101F5000239723964CAD5DAD6EAD7FAD23974BAB14
:101F60005CAB6DAB7EAB89AF9AAFABAFBCAF8DA7AF
:101F70009EA7AFA7B8AB28AB4DA55EA56FA578A966
:101F80004FA358A769A77AA72EAB4BA95CA96DA947
:101F90007EA949A35AA36BA37CA38B8F9C8FAD8F83
:101FA000BE8F47EB51E05C8B4B8B3FEF3D8B3E8B05
:101FB0003F8B188E5E874D872AA7CFA0D8A4E9A4AF
:101FC000FAA4CF86D88AE98AFA8A2CA309A11AA191
:101FD0002BA13CA109871A872B873C875A83498309
:101FE0008B839C83AD83BE836CE271E080E090E0E4
:101FF0000E9456091FB7F89480918904811127C067
:10200000E8EBF0E08491E4EAF0E09491E82FF0E06E
:10201000EE0FFF1FE057FF4FA591B491EC91E9231C
:1020200021F461E08AE00E948B0861E08AE00E946E
:10203000BB088CB580618CBD8CB580648CBD61E0C3
:102040008DE00E94BB0861E08BE00E94BB0880919C
:1020500089048F5F809389041FBF229A80E590E0F6
:102060000E947E0260E880E090E00E94680A65E5D8
:102070008BE190E00E94680A65E58AE190E00E94A9
:10208000680A0E947D0280E090E49093E4028093CD
:10209000E30280E090E69093EC028093EB0280E014
:1020A00098E49093E6028093E50280E098E69093AE
:1020B000EE028093ED0280E090E59093E802809339
:1020C000E70280E090E79093F0028093EF0280E0D7
:1020D00098E59093EA028093E90280E098E7909374
:1020E000F2028093F10280E590E00E947E0246E0D9
:1020F00050E062E071E089E090E00E94390A44E03B
:1021000050E0BE016D5F7F4F8FE090E00E94390A82
:1021100044E050E0BE01615F7F4F81E090E00E94AB
:10212000390A44E050E0BE016B5E7F4F85E090E0ED
:102130000E94390A0E947D0281E08C8789859A85F8
:10214000AB85BC858093DA039093DB03A093DC031B
:10215000B093DD03CE5BDF4F0FB6F894DEBF0FBE4A
:10216000CDBFDF91CF911F910F91FF90EF90DF9046
:10217000CF900895CF92DF92EF92FF92CF93DF93AB
:10218000EC010E9490096B017C018091E603909123
:10219000E703DC01ED91FC910480F581E02D0995C8
:1021A000892B79F40E949009AB01BC014C195D099F
:1021B0006E097F0948395A436105710530F380E0A3
:1021C0000DC08091E6039091E703DC01ED91FC9155
:1021D0000680F781E02D0995888381E0DF91CF911A
:1021E000FF90EF90DF90CF9008955F926F927F9273
:1021F0008F929F92AF92BF92CF92DF92EF92FF9217
:102200000F931F93CF93DF931F92CDB7DEB74C018F
:1022100088EE93E00E94BA10811126C022C00F5FA1
:102220001F4F8981F801EA51FC4F8183282F2F77B6
:1022300030E02C9DA0012D9D500D3C9D500D112492
:10224000A40EB51E37E0CC0CDD1CEE1CFF1C3A952D
:10225000D1F787FF15C0CE0101960E94BA108111F7
:10226000DECF80E090E088C07090E803198201E042
:1022700010E0A12CB12CC12CD12C7601C394EBCF52
:10228000872D807F55245394803309F0512C8FEF94
:10229000800FD4018C93552021F1C80188519C4FA7
:1022A0000E94BA108823E9F2C80187519C4F0E940E
:1022B000BA108823B1F20E5F1F4FD401EC91F0E009
:1022C000EA51FC4FE380F12CFE2CEE248481E80ED1
:1022D000F11C8091E80381FF08C0B2E0EB0EF11C15
:1022E00004C080E0E12CF12C01C082E0C82ED12C8A
:1022F000C01AD10A9EEF692E77247A94C601800F06
:10230000911F8A159B0568F5CE0101960E94BA10AF
:10231000882309F4A6CF80917F04909180040097D0
:10232000A9F0552099F0F4012081A301421B510925
:102330009A01200F311FE216F30640F4DC01ED9103
:10234000FC910190F081E02D69810995003811051B
:1023500028F48981F801EA51FC4F82830F5F1F4FF7
:10236000CDCF80917F0490918004892B21F4013896
:10237000110508F076CFC8010F90DF91CF911F9122
:102380000F91FF90EF90DF90CF90BF90AF909F9014
:102390008F907F906F905F9008958091E603909169
:1023A000E703009759F1DC01ED91FC910488F58970
:1023B000E02D0995811124C08091810490918204BF
:1023C000892BE1F48DEF9FEF909382048093810439
:1023D0008091E6039091E703DC01ED91FC9102848A
:1023E000F385E02D09958091E6039091E703DC01E8
:1023F000ED91FC910288F389E02D099580E0089524
:1024000081E00895CF93DF93DC014E5F5F4FFC01C5
:102410009F012A1B3B0B9191992339F0EB01C40FCB
:10242000D51F98834F5F5F4FF3CFCA01821B930B79
:10243000680F791FFB013297308331962083CA01E0
:10244000DF91CF910895CF92DF92EF92FF920F9399
:102450001F93CF93DF9300D000D0CDB7DEB79A01A2
:10246000E0E0922F9F77220F232F221F330B31950D
:102470002115310509F0906801E00E0FA1E0B0E0F0
:10248000AC0FBD1FAE0FB11DFD01908321153105AD
:1024900011F0E02FE6CF10E0DB01A01BB10B14968A
:1024A0008C93FE0131966F0180E090E080179107D8
:1024B00064F4F601F1906F019C01201B310B260F93
:1024C000371FF901F5820196F1CF8091E6039091D3
:1024D000E7034F5F5F4F040F151FFC01208131811F
:1024E000F90122813381A801BD01F90109957C011F
:1024F0000E94900960936A0470936B0480936C044B
:1025000090936D0481E0E016F10609F080E00F90F1
:102510000F900F900F90DF91CF911F910F91FF902F
:10252000EF90DF90CF900895EF92FF920F931F935B
:10253000CF93DF937C018B01EB0109900020E9F739
:102540002197C61BD70B0E94CD118823B1F1F7014B
:1025500001900020E9F73197EE19FF09CE010796A7
:10256000E80FF91FE138F10540F545E050E068EE6D
:1025700073E0C7010E940212F80120E030E02C173E
:102580003D0759F04191D901A80FB91FAA51BC4F7D
:1025900012964C932F5F3F4FF2CF25503109A9017E
:1025A000480F591F68EE73E080E3DF91CF911F91D0
:1025B0000F91FF90EF900C94231280E0DF91CF9168
:1025C0001F910F91FF90EF9008959F92AF92BF924D
:1025D000CF92DF92EF92FF920F931F93CF93DF93EF
:1025E000982E8B015A01690164E270E00E94870D08
:1025F000E82EF12C65E270E0892D0E94870DFE2CFB
:10260000EE24E82AE701C00FD11F9E013770E92CA4
:10261000F12CC701880F991FAC014D515D4F7A0114
:10262000FA0180819181820F931FA9014C0D5D1DDC
:102630004130584090F000E018E0021B130BA80155
:10264000B5010E94390AA601401B510BB501600F6C
:10265000711FF7018081918102C0A601B5010E941E
:10266000390ACC0DDD1D4D2F64E270E0892D0E94EA
:102670007D0D4C2F65E270E0892DDF91CF911F9188
:102680000F91FF90EF90DF90CF90BF90AF909F9011
:102690000C947D0DFF920F931F93CF93DF93F82E31
:1026A000C0E0D0E08F2D0E94EA098C01892B21F037
:1026B0008F2D0E94EA09EC01C017D10799F7CE01CE
:1026C000DF91CF911F910F91FF900895CF93C82F65
:1026D000462F61E070E00E947D0D61E070E08C2F7C
:1026E0000E94870D8111F9CFCF9108958F929F920B
:1026F000AF92BF92CF92DF92EF92FF920F931F9310
:10270000CF93DF93B82E4B018A01A22E68E270E0CE
:102710000E94870DC82FD0E069E270E08B2D0E94E7
:10272000870DDC2FCC27C82B9E013770CB2CD12CEA
:10273000C601880F991FAC0145515D4F6A01FA012E
:1027400080819181820F931FA801420F531F413056
:10275000584098F060E078E07B01E21AF30AA701A4
:10276000B4010E94090AA8014E195F09B4016E0D57
:102770007F1DF6018081918102C0A801B4010E94F1
:10278000090AA1100EC0C00FD11F4D2F68E270E0E2
:102790008B2D0E947D0D4C2F69E270E08B2D0E94E5
:1027A0007D0DDF91CF911F910F91FF90EF90DF9002
:1027B000CF90BF90AF909F908F900895FC01808143
:1027C0009181009711F00C94151C60E070E0CB0132
:1027D00008952F923F924F925F926F927F928F92C5
:1027E0009F92AF92BF92CF92DF92EF92FF920F93A0
:1027F0001F93CF93DF9300D000D0CDB7DEB7FC019D
:10280000448055804114510409F413C1FB016480D4
:1028100075806114710409F40CC17A016B019C8309
:102820008B83FA01A480B580A618B708FC0100814B
:102830001181A114B104C1F4F60160817181C80154
:102840000E94D71E5C01892B09F4F3C0F701608157
:10285000718144815581C5010E94AC1EF70104813C
:1028600015810A0D1B1DE8CFB7FE02C0480106C046
:10287000FB01208031804201C80148C0F60160811F
:102880007181C4010E94D71E2C01892B29F13201CC
:1028900068187908A301B401C8010E94AC1E060D96
:1028A000171DF7016081718144815581C8010E9423
:1028B000AC1EF70184819581080F191FF6018480F1
:1028C0009580840C951CEB81FC81848195818A0D17
:1028D0009B1D95838483D2CFB401C8010F900F90C4
:1028E0000F900F90DF91CF911F910F91FF90EF907C
:1028F000DF90CF90BF90AF909F908F907F906F9020
:102900005F904F903F902F900C94D01EB1010E9489
:10291000D71E009729F0860D971D8A0C9B1CF6CFB9
:102920008414950409F485C0EB81FC818281938134
:102930008815990578F4B4016F5F7F4FC8010E9434
:10294000DD1D009709F475C0EB81FC8191838083C4
:1029500093828282EB81FC810481158101501109EF
:1029600017FD67C0F601248035802114310409F475
:1029700060C0EB81FC81648075806114710409F48E
:1029800058C06214730408F454C00615170518F0F3
:10299000830101501109EB81FC8140805180C2010B
:1029A00088248A94982C9201200F311F2817390708
:1029B00058F0F6016081718129833A830E94D71E05
:1029C00029813A81009761F597FC33C0280C391CA6
:1029D000C201820D931DA30142195309BC018A0D46
:1029E0009B1D0E94B51EEB81FC81848195818A0D1F
:1029F0009B1D9583848320813181F901E80FF91FA4
:102A00001082EB81FC8180819181F701608171816D
:102A100044815581880D991D0E94AC1E84019ECF72
:102A2000AC01441955090417150708F04A0101962D
:102A3000BDCF0F900F900F900F90DF91CF911F910E
:102A40000F91FF90EF90DF90CF90BF90AF909F904D
:102A50008F907F906F905F904F903F902F90089550
:102A6000FC0124813581232B31F421E061157105AE
:102A7000A1F0FB0108C0FC01808191816115710505
:102A800031F421E0FC018081882339F005C00E94E7
:102A9000C71E21E0892B09F020E0822F08950F93B3
:102AA0001F93CF93DF93EC0188819981009729F0E0
:102AB0002A813B812617370788F48B016F5F7F4F90
:102AC0000E94DD1D009761F0998388831B830A8330
:102AD0002C813D81232B11F4FC01108281E001C087
:102AE00080E0DF91CF911F910F910895EF92FF92B7
:102AF0000F931F93CF93DF93EC017B018A01BA01FF
:102B00000E944F152881398181110DC02115310591
:102B100019F0C9010E94451D198218821D821C826C
:102B20001B821A8206C01D830C83B701C9010E9453
:102B3000D01ECE01DF91CF911F910F91FF90EF90AA
:102B40000895FC01808191810C94451DFC01118246
:102B5000108213821282158214826115710551F060
:102B6000FB0101900020E9F73197AF01461B570B9D
:102B70000C9476150895BF92CF92DF92EF92FF9258
:102B80000F931F93CF93DF937C016B01EA018901BF
:102B90002417350720F48D2FE901042F182F6DE03D
:102BA00072E0C7010E94A615D60114968D919C91E2
:102BB0001597C817D907C8F58017910708F48C0135
:102BC000D601ED91FC911197E00FF11FB0801082BA
:102BD0004D915C91BA016C0F7D1F6115710561F01B
:102BE000FB0101900020E9F73197AF01461B570B1D
:102BF000C7010E94761513C0F7018081918100976B
:102C000011F00E94451DD70111961C921E92159637
:102C10001C921E92149713961C921E921297D60124
:102C2000ED91FC91E00FF11FB082C701DF91CF91D0
:102C30001F910F91FF90EF90DF90CF90BF9008957C
:102C40004F925F926F927F92EF92FF920F931F933A
:102C5000CF93DF93CDB7DEB7A1970FB6F894DEBF61
:102C60000FBECDBF7C01FA01CB0119A2223008F4BE
:102C70002AE08E010F5D1F4F422E512C612C712CCA
:102C8000BF01A30192010E94511CF901CA01015028
:102C900011096A3014F4605D01C0695CD8016C935D
:102CA000232B242B252B61F7B801C7010E94A10B10
:102CB000A1960FB6F894DEBF0FBECDBFDF91CF91C6
:102CC0001F910F91FF90EF907F906F905F904F90CA
:102CD00008950F931F93CF93DF93EC010E94A10BF4
:102CE0008C016BE072E0CE010E94A10B800F911F5E
:102CF000DF91CF911F910F910895DC01ED91FC912F
:102D00000190F081E02D0994CF93DF93CDB7DEB72A
:102D10002B970FB6F894DEBF0FBECDBF789484B565
:102D2000826084BD84B5816084BD85B5826085BDC7
:102D300085B5816085BD80916E00816080936E0055
:102D40001092810080918100826080938100809147
:102D500081008160809381008091800081608093F8
:102D600080008091B10084608093B1008091B000B8
:102D700081608093B00080917A00846080937A00B3
:102D800080917A00826080937A0080917A008160DD
:102D900080937A0080917A00806880937A00109204
:102DA000C1001092D4031092D5031092D603109252
:102DB000D7031092920310929303109294031092EF
:102DC000950368EB7BE080E090E00E94560983EF7A
:102DD00092E09093D3038093D2030E94610F0E94EC
:102DE000900960939203709393038093940390935C
:102DF00095036CEF71E08091D2039091D3030E9410
:102E0000B60B6AE070E080E090E00E94560981E035
:102E10008093A60362E087E00E94BB0861E083E044
:102E20000E94BB0861E085E00E94BB0861E086E08B
:102E30000E94BB0861E089E00E94BB0807EB11E03B
:102E40001A8309838091850490918604A091870458
:102E5000B09188048B839C83AD83BE83CE010196A1
:102E60000E94890F0E94610F1A8309831B821C82B2
:102E70001D821E8280E590E00E947E0244E050E0C8
:102E8000BE016D5F7F4F8FE090E00E94090A0E94B3
:102E90007D0263EF72E0CE0101960E94AA076BE00B
:102EA00072E083EF92E00E94A10BB4EF2B2E33244B
:102EB0003394412C512C5E0128E0A20EB11C0E94DB
:102EC0009009672B682B692B41F40E9490096230AE
:102ED00071058105910508F404C10E949009609371
:102EE000D7027093D8028093D9029093DA020091AE
:102EF000D3021091D4022091D5023091D6026017EE
:102F000071078207930740F46093D3027093D40251
:102F10008093D5029093D6020091D3021091D402EF
:102F20002091D5023091D6026B017C01C01AD10AE2
:102F3000E20AF30A970186010A3F110521053105CE
:102F400008F4CFC06093D3027093D4028093D5026B
:102F50009093D60220929E0330929F034092A0034A
:102F60005092A1031092A2031092A3031092A40303
:102F70001092A5038091960390919703A0919803D6
:102F8000B091990380939A0390939B03A0939C0321
:102F9000B0939D030E9490096093960370939703EA
:102FA00080939803909399030E94900960939203F1
:102FB0007093930380939403909395030E949009D8
:102FC0006B017C016EE072E08091D2039091D3039B
:102FD0000E94B60B2AE041E050E060E070E0809192
:102FE000D2039091D3030E94201665E172E0809194
:102FF000D2039091D3030E94B60B2AE0B701A60139
:103000008091D2039091D3030E94201667E172E071
:103010008091D2039091D3030E94B60B80919603C6
:1030200090919703A0919803B0919903B701A601DD
:10303000481B590B6A0B7B0B2AE08091D2039091BD
:10304000D3030E94201667E172E08091D203909131
:10305000D3030E94B60B4091960350919703609161
:1030600098037091990380919A0390919B03A0918A
:103070009C03B0919D03481B590B6A0B7B0B2AE004
:103080008091D2039091D3030E94201669E172E0EF
:103090008091D2039091D3030E94B60B0E949009B5
:1030A000AB01BC012AE08091D2039091D3030E942E
:1030B00020166BE172E08091D2039091D3030E94BD
:1030C000691665E070E080E090E00E9456090E9479
:1030D000900960939603709397038093980390935D
:1030E00099030E94CD11811137C162E272E083EF32
:1030F00092E00E9469160E94CD118111DCC060919E
:103100007B0470917C048091E6039091E7034091E9
:103110007D0450917E04DC01ED91FC9161157105F7
:1031200021F00684F785E02D18C00484F585E02D94
:10313000A7EBCA2EA1E0DA2EDA82C98200917704C9
:10314000109178042091790430917A040B831C83C8
:103150002D833E83BE016F5F7F4F099581309105BE
:1031600009F0A2C0909369048093680487E0EEE0C0
:10317000F1E0DE01119601900D928A95E1F7FE01D2
:103180003196ADEEB3E081918D93EA15FB05D9F749
:1031900082EC8093F4031092F5038FE08093F603A2
:1031A0004FE050E068EE73E081E392E00E9402128B
:1031B000AC0168EE73E080E492E00E940212AC0180
:1031C00068EE73E089E492E00E940212AC0145507F
:1031D000510968EE73E080E10E9423120E94900979
:1031E00060936A0470936B0480936C0490936D04F5
:1031F00060936E0470936F048093700490937104D5
:103200008091E6039091E703DC01ED91FC9104804D
:10321000F581E02D0995892BE1F40E949009009138
:103220006E0410916F042091700430917104DC01E0
:10323000CB01801B910BA20BB30B88399A43A105DC
:10324000B105F0F24CEF5FEF50938204409381049C
:103250001FC0C5010E94F5100497D1F48091EB03C3
:10326000811111C00E94900960936E0470936F04E5
:1032700080937004909371041092720410928204EF
:103280001092810418C090E090938204809381048E
:103290008091E6039091E703DC01ED91FC910288B7
:1032A000F389E02D099542C0EEEFFFEFF093820421
:1032B000E09381043BC066E572E082E692E00E9402
:1032C00094120E94CD11882371F18091680490912D
:1032D0006904019629F0909369048093680407C0FB
:1032E000CC24C394D12CD0926904C09268048091FC
:1032F0006804909169049093ED038093EE0347E096
:1033000050E068EE73E08AE692E00E940212FC014F
:10331000EA51FC4F1282AC014450510968EE73E04F
:1033200082E80E94231263E772E012C069E872E04B
:1033300083EF92E00E94B60B609181047091820449
:10334000072E000C880B990B0E941F0F65E972E095
:1033500083EF92E00E9469160E94CD11882309F440
:1033600040C10E9490096B017C0180916E04909194
:103370006F04A0917004B0917104A7019601281BFD
:10338000390B4A0B5B0BDA01C90189399A43A10554
:10339000B105A8F480916A0490916B04A0916C042B
:1033A000B0916D04A7019601281B390B4A0B5B0BEA
:1033B000DA01C90189399A43A105B105C8F1209103
:1033C00072048091E6039091E703222371F04CEFA1
:1033D0005FEF5093820440938104DC01ED91FC91F6
:1033E0000288F389E02D0995FCC020EC2093E803C6
:1033F0001092E903DC01ED91FC910280F381E02D54
:1034000042E050E068EE73E00995C0926A04D09201
:103410006B04E0926C04F0926D04C0926E04D09242
:103420006F04E0927004F092710481E08093720462
:103430008091E6039091E703DC01ED91FC9104801B
:10344000F581E02D0995892B09F4CBC0CE010196B9
:103450000E94F5104C01892B09F4C3C0C0926E0480
:10346000D0926F04E0927004F09271041091E8031E
:10347000812F807F803309F099C060907304709031
:1034800074046114710409F4ACC02DB73EB73B87D6
:103490002A87E981F0E0DF01AA51BC4F13964C91D5
:1034A000139750E0542F442714968C91480F511DC8
:1034B000CA010196ADB7BEB7A81BB90B0FB6F894F9
:1034C000BEBF0FBEADBF8DB79EB70196BC0120E059
:1034D00030E02417350769F0D901AE0FBF1FAA519C
:1034E000BC4F15960C91DB010D93BD012F5F3F4F33
:1034F000F0CFDC01A20FB31F1C9216701987123097
:10350000F1F5B9016E0F7F1FDB01AA51BC4F159673
:103510000C91159710E0102F002716964C91040F70
:10352000111D4BEF5FEF4E1B5F0B421B530B480D02
:10353000591D63517C4FF301099580E48093E803A2
:1035400029852093E9031093EA030093EB0380910C
:10355000E6039091E703DC01ED91FC910280F38199
:10356000E02D44E050E068EE73E00995C0926A04F3
:10357000D0926B04E0926C04F0926D040FC04DEF9A
:103580005FEF4E1B5F0B421B530B480D591D2E0F57
:103590003F1FB90165517C4FF3010995CA84DB8453
:1035A0000FB6F894DEBE0FBECDBE1BC0803CA9F4A2
:1035B00080ED8093E8031092E9038091E6039091F7
:1035C000E703DC01ED91FC910280F381E02D42E004
:1035D00050E068EE73E0099504C0803D11F410924C
:1035E0007204E3E8F0E08491E1EAF0E01491E5EBA5
:1035F000F0E004910023A1F081110E946208E02F05
:10360000F0E0EE0FFF1FEE58FF4FA591B4918C91A3
:10361000182391E080E009F490E0092F182F02C0F0
:1036200000E010E08091D1029091D20208171907B2
:10363000E1F01093D2020093D1020130110519F08C
:1036400068EF71E002C061EB72E08DEA92E00E94E7
:103650009412B801110F880B990B0E941F0F6BE099
:1036600072E083EF92E00E94A10B60ED77E080E0D2
:1036700090E00E9456090E947B0721CCEAE8F4E022
:1036800087EB91E0918380831282138214821582EA
:10369000E3EFF2E01382128248EE53E060E070E064
:1036A00044835583668377832BE631E0318320831F
:1036B00025EC30E03587248724EC30E037872687F7
:1036C00020EC30E0318B208B21EC30E0338B228BEF
:1036D00022EC30E0358B248B26EC30E0378B268BC8
:1036E000118E128E138E148EE0E9F3E0168217828B
:1036F00010861186128613861486158616861786FE
:10370000108A118A128A138A148A158AE0E9F4E071
:10371000918380831282138214821582E6E9F4E099
:10372000918380831282138214821582ECE9F4E083
:10373000918380831282138214821582E2EAF4E07C
:10374000918380831282138214821582E8EDF3E064
:10375000918380831282138214821582E0EEF3E05B
:10376000918380831282138214821582E8EAF4E046
:10377000918380831282138214821582EEEAF4E030
:10378000918380831282138214821582E1ECF4E02B
:10379000918380831282138214821582E3E8F4E01D
:1037A0009183808320EC228328EA238321E02483F1
:1037B00022EB2583E4EBF4E01382128244835583E9
:1037C0006683778323E931E03183208324E02487F3
:1037D0009093760480937504109277041092780485
:1037E0001092790410927A048FEF9FEF90938204E5
:1037F0008093810484EB92E090937C0480937B041B
:1038000089E497E290937E0480937D048CEF90E0AE
:103810009093740480937304F093E703E093E603BA
:103820001092800410927F0408951F93FC01992741
:103830008827BC01E89411911032E9F3193010F097
:103840001E30C8F31B3251F01D3249F4689406C093
:103850000E943C1C610F711D811D911D119110531F
:103860001A30B0F33EF490958095709561957F4F36
:103870008F4F9F4F1F910895592F482F372F262F75
:10388000660F771F881F991F660F771F881F991F64
:10389000620F731F841F951F660F771F881F991F64
:1038A0000895A1E21A2EAA1BBB1BFD010DC0AA1F81
:1038B000BB1FEE1FFF1FA217B307E407F50720F099
:1038C000A21BB30BE40BF50B661F771F881F991F14
:1038D0001A9469F760957095809590959B01AC015D
:1038E000BD01CF0108952F923F924F925F926F9248
:1038F0007F928F929F92AF92BF92CF92DF92EF9280
:10390000FF920F931F93CF93DF93CDB7DEB7CA1B00
:10391000DB0B0FB6F894DEBF0FBECDBF09942A882B
:10392000398848885F846E847D848C849B84AA84D3
:10393000B984C884DF80EE80FD800C811B81AA8160
:10394000B981CE0FD11D0FB6F894DEBF0FBECDBF2B
:10395000ED010895EE0FFF1F0590F491E02D0994FD
:10396000CF93DF938230910510F482E090E0E091F4
:10397000C904F091CA0420E030E0C0E0D0E0309704
:1039800011F14081518148175907C0F04817590774
:1039900061F482819381209719F09B838A832BC0E5
:1039A0009093CA048093C90426C02115310519F0EB
:1039B0004217530718F49A01BE01DF01EF0102809C
:1039C000F381E02DDCCF2115310509F1281B390BDE
:1039D0002430310590F412968D919C9113976115C6
:1039E000710521F0FB019383828304C09093CA0484
:1039F0008093C904FD01329644C0FD01E20FF31F1C
:103A000081939193225031092D933C933AC0209198
:103A1000C7043091C804232B41F420910A0130914E
:103A20000B013093C8042093C70420910801309102
:103A300009012115310541F42DB73EB740910C0124
:103A400050910D01241B350BE091C704F091C8047F
:103A5000E217F307A0F42E1B3F0B2817390778F065
:103A6000AC014E5F5F4F2417350748F04E0F5F1FC4
:103A70005093C8044093C7048193919302C0E0E03F
:103A8000F0E0CF01DF91CF9108950F931F93CF9373
:103A9000DF93009709F48CC0FC01329713821282E5
:103AA0000091C9041091CA040115110581F4208107
:103AB0003181820F931F2091C7043091C8042817C9
:103AC000390779F5F093C804E093C70471C0D801B1
:103AD00040E050E0AE17BF0750F412962D913C9194
:103AE0001397AD012115310509F1D901F3CF9D01DE
:103AF000DA013383228360817181860F971F8217D9
:103B0000930769F4EC0128813981260F371F2E5F56
:103B10003F4F318320838A819B8193838283452B0E
:103B200029F4F093CA04E093C90442C01396FC93AD
:103B3000EE931297ED01499159919E01240F351F83
:103B4000E217F30771F480819181840F951F02962B
:103B500011969C938E938281938113969C938E935E
:103B60001297E0E0F0E0D80112968D919C911397A6
:103B7000009719F0F8018C01F6CF8D919C91980176
:103B80002E5F3F4F820F931F2091C7043091C804CE
:103B90002817390769F4309729F41092CA04109253
:103BA000C90402C0138212821093C8040093C70490
:103BB000DF91CF911F910F910895A0E0B0E0E3EE67
:103BC000FDE10C94771CEC01009721F4CB010E94DD
:103BD000B01CB8C0FC01E60FF71F9C012250310950
:103BE000E217F30708F4ACC0D9010D911C911197AD
:103BF00006171707B0F00530110508F49FC0C8017B
:103C000004978617970708F499C002501109061BFC
:103C1000170B019311936D937C93CF010E94451D67
:103C20008DC05B01A01AB10A4C01800E911EA091BB
:103C3000C904B091CA0440E050E0E12CF12C109787
:103C400009F44AC0A815B905D1F56D907C9011977B
:103C5000630182E0C80ED11CCA14DB0480F1A30109
:103C60004A195B096A0182E0C80ED11C1296BC9009
:103C700012971396AC91B5E0CB16D10440F0B28206
:103C8000A38351834083D9016D937C930AC00E5F57
:103C90001F4FC301800F911FF90191838083EB2D8A
:103CA000FA2FE114F10431F0D7011396FC93EE934F
:103CB000129744C0F093CA04E093C9043FC08D91A9
:103CC0009C9111974817590708F4AC017D01129691
:103CD0000D90BC91A02DB3CF8091C7049091C804E2
:103CE00088159905E1F446175707C8F48091080133
:103CF00090910901009741F48DB79EB740910C0156
:103D000050910D01841B950BE817F907C8F4F09347
:103D1000C804E093C704F901718360830FC0CB012D
:103D20000E94B01C7C01009759F0A801BE010E94BE
:103D3000AC1ECE010E94451DC70104C0CE0102C0C9
:103D400080E090E0CDB7DEB7EEE00C94931C81E00C
:103D500090E0F8940C94F11EFB01DC0102C001908C
:103D60000D9241505040D8F708956817790768F4CC
:103D7000FB01DC01E40FF51FA40FB51F02C0029088
:103D80000E9241505040D8F708950C94AC1EFB01A0
:103D9000DC018D91019080190110D9F3990B0895E0
:103DA000FB01DC0101900D920020E1F70895FB0179
:103DB00051915523A9F0BF01DC014D9145174111E7
:103DC000E1F759F4CD010190002049F04D914015E3
:103DD0004111C9F3FB014111EFCF81E090E0019760
:063DE0000895F894FFCFE6
:103DE60000C0DEEDBAFEFEED0000CB04800000044C
:103DF6004D5154540401005E00000000000000F024
:103E060007F007F007F007F007F007F007EE0BF0F2
:103E160007F007F007F007F007F007F007F007F0E4
:103E26000700000000B90BBD0CCF0B3B0C030CB810
:103E36000BC60D3C0E680DB30EF50CF30D640C1C91
:103E46000CE70BD70BD30B000000001207760BDB39
:103E560006B906CD06590700000000F007760BF0FC
:103E660007F007F007F00700000000F007760B00E8
:103E76000000008D00C702F300D900B2008C003BA1
:103E8600034606D5008102FB0EFB0BAF00AD00F02A
:103E96000BA30000000000AA0700000000F0074D79
:103EA6006573736167652061727269766564205B0C
:103EB600005D2000425554544F4E2F636D640042FE
:103EC6005554544F4E2F5247422F636D640072670C
:103ED6006200280029002C004F464600564D4450EB
:103EE600565F317C315F564D4450560D0A00564D93
:103EF6004450455F003A323A007C005F564D4450CC
:103F0600450054727920746F20636F6E6E6563741A
:103F16000061726475696E6F436C69656E74320018
:103F2600676672726F6978640038324B6B47673523
:103F360036417647560068656C6C6F20776F726CF9
:103F46006400436F6E6E65637400425554544F4E61
:103F56002F2300436F6E6E656374696F6E20537511
:103F6600636365737366756C006661696C65642C62
:103F76002072633D002074727920616761696E204A
:103F8600696E2032207365636F6E64730042555408
:103F9600544F4E006D31322E636C6F75646D7174C3
:063FA600742E636F6D0034
:107E0000112484B714BE81FFF0D085E080938100F7
:107E100082E08093C00088E18093C10086E0809377
:107E2000C20080E18093C4008EE0C9D0259A86E02C
:107E300020E33CEF91E0309385002093840096BBD3
:107E4000B09BFECF1D9AA8958150A9F7CC24DD24C4
:107E500088248394B5E0AB2EA1E19A2EF3E0BF2EE7
:107E6000A2D0813461F49FD0082FAFD0023811F036
:107E7000013811F484E001C083E08DD089C08234E0
:107E800011F484E103C0853419F485E0A6D080C0E4
:107E9000853579F488D0E82EFF2485D0082F10E0AE
:107EA000102F00270E291F29000F111F8ED06801E7
:107EB0006FC0863521F484E090D080E0DECF843638
:107EC00009F040C070D06FD0082F6DD080E0C81688
:107ED00080E7D80618F4F601B7BEE895C0E0D1E017
:107EE00062D089930C17E1F7F0E0CF16F0E7DF06D8
:107EF00018F0F601B7BEE89568D007B600FCFDCFD4
:107F0000A601A0E0B1E02C9130E011968C91119780
:107F100090E0982F8827822B932B1296FA010C0160
:107F200087BEE89511244E5F5F4FF1E0A038BF0790
:107F300051F7F601A7BEE89507B600FCFDCF97BE46
:107F4000E89526C08437B1F42ED02DD0F82E2BD052
:107F50003CD0F601EF2C8F010F5F1F4F84911BD097
:107F6000EA94F801C1F70894C11CD11CFA94CF0C13
:107F7000D11C0EC0853739F428D08EE10CD085E9AC
:107F80000AD08FE07ACF813511F488E018D01DD067
:107F900080E101D065CF982F8091C00085FFFCCF94
:107FA0009093C60008958091C00087FFFCCF809118
:107FB000C00084FD01C0A8958091C6000895E0E648
:107FC000F0E098E1908380830895EDDF803219F02E
:107FD00088E0F5DFFFCF84E1DECF1F93182FE3DFCA
:107FE0001150E9F7F2DF1F91089580E0E8DFEE27F6
:047FF000FF270994CA
:027FFE00040479
:0400000300007E007B
:00000001FF